8=FIX.4.2|9=104|35=A|34=1|49=WILEY|52=20230313-10:00:00|56=BANKOFTHENORTH|98=0|108=30|141=Y|10=234|
8=FIX.4.2|9=104|35=A|34=2|49=BANKOFTHENORTH|52=20230313-10:01:00|56=WILEY|98=0|108=30|141=Y|10=234|
8=FIX.4.2|9=209|35=D|34=3|49=WILEY|52=20230313-10:02:00|56=BANKOFTHENORTH|11=12345|21=1|55=IBM|54=1|38=100|40=2|44=215.50|59=0|10=150|
8=FIX.4.2|9=259|35=8|34=4|49=BANKOFTHENORTH|52=20230313-10:03:00|56=WILEY|37=123456|17=123|20=0|31=215.50|32=100|55=IBM|54=2|38=100|39=2|151=100|14=0|6=215.50|60=20230313-10:03:00|10=041|
8=FIX.4.2|9=209|35=D|34=5|49=WILEY|52=20230313-11:04:00|56=BANKOFTHENORTH|11=12346|21=1|55=AAPL|54=1|38=200|40=2|44=124.50|59=0|10=056|
8=FIX.4.2|9=259|35=8|34=6|49=BANKOFTHENORTH|52=20230313-11:05:00|56=WILEY|37=123457|17=124|20=0|31=124.50|32=200|55=AAPL|54=2|38=200|39=2|151=200|14=0|6=124.50|60=20230313-11:05:00|10=012|
8=FIX.4.2|9=209|35=D|34=6|49=WILEY|52=20230313-10:06:00|56=BANKOFTHENORTH|11=12345|21=1|55=TSLA|54=1|38=100|40=2|44=173.50|59=0|10=150|
8=FIX.4.2|9=259|35=8|34=7|49=BANKOFTHENORTH|52=20230313-10:07:00|56=WILEY|37=123456|17=123|20=0|31=173.50|32=100|55=TSLA|54=2|38=100|39=2|151=100|14=0|6=215.50|60=20230313-10:07:00|10=041|
8=FIX.4.2|9=209|35=D|34=8|49=WILEY|52=20230313-11:08:00|56=BANKOFTHENORTH|11=12346|21=1|55=AAPL|54=1|38=500|40=2|44=124.50|59=0|10=056|
8=FIX.4.2|9=259|35=8|34=9|49=BANKOFTHENORTH|52=20230313-11:09:00|56=WILEY|37=123457|17=124|20=0|31=124.50|32=500|55=AAPL|54=2|38=500|39=2|151=200|14=0|6=124.50|60=20230313-11:09:00|10=012|
8=FIX.4.2|9=123|35=R|34=10|49=WILEY|52=20230313-12:00:00|56=BANKOFTHENORTH|131=1|146=1|55=GOOG|10=128|
8=FIX.4.2|9=123|35=R|34=11|49=WILEY|52=20230313-12:00:00|56=BANKOFTHENORTH|131=1|146=1|55=MSFT|10=128|
8=FIX.4.2|9=131|35=S|34=12|49=BANKOFTHENORTH|52=20230313-12:01:00|56=WILEY|131=1|146=1|55=GOOG|132=125.00|133=100|10=064|
8=FIX.4.2|9=131|35=S|34=13|49=BANKOFTHENORTH|52=20230313-12:01:00|56=WILEY|131=1|146=1|55=MSFT|132=425.00|133=100|10=064|
8=FIX.4.2|9=209|35=D|34=14|49=WILEY|52=20230313-12:02:00|56=BANKOFTHENORTH|11=12346|21=1|55=GOOG|54=1|38=100|40=2|44=125.00|59=0|10=056|
8=FIX.4.2|9=259|35=8|34=15|49=BANKOFTHENORTH|52=20230313-12:22:00|56=WILEY|37=123457|17=124|20=0|31=125.00|32=100|55=GOOG|54=2|38=100|39=2|151=200|14=0|6=124.50|60=20230313-12:22:00|10=012|
8=FIX.4.2|9=209|35=D|34=16|49=WILEY|52=20230313-12:34:00|56=BANKOFTHENORTH|11=12346|21=1|55=MSFT|54=1|38=100|40=2|44=425.00|59=0|10=056|
8=FIX.4.2|9=259|35=8|34=17|49=BANKOFTHENORTH|52=20230313-12:46:00|56=WILEY|37=123457|17=124|20=0|31=425.00|32=100|55=MSFT|54=2|38=100|39=2|151=200|14=0|6=124.50|60=20230313-12:46:00|10=012|
8=FIX.4.2|9=209|35=D|34=18|49=WILEY|52=20230313-12:50:00|56=BANKOFTHENORTH|11=12347|21=1|55=AAPL|54=1|38=100|40=2|44=124.00|59=0|10=100|
8=FIX.4.2|9=225|35=G|34=19|49=WILEY|52=20230313-12:51:00|56=BANKOFTHENORTH|41=123456|11=12347|55=AAPL|54=1|38=100|40=2|44=125.00|59=0|10=052|
8=FIX.4.2|9=124|35=F|34=20|49=WILEY|52=20230313-12:52:00|56=BANKOFTHENORTH|37=123458|11=12347|41=123456|55=AAPL|54=1|38=100|39=4|10=005|
8=FIX.4.2|9=209|35=D|34=21|49=WILEY|52=20230313-12:53:00|56=BANKOFTHENORTH|11=12347|21=1|55=AAPL|54=1|38=100|40=2|44=124.00|59=0|10=100|
8=FIX.4.2|9=259|35=8|34=22|49=BANKOFTHENORTH|52=20230313-12:55:00|56=WILEY|37=123458|17=125|20=0|31=124.00|32=100|55=AAPL|54=2|38=100|39=2|151=100|14=0|6=124.00|60=20230313-12:55:00|10=037|
8=FIX.4.2|9=259|35=8|34=23|49=BANKOFTHENORTH|52=20230313-13:02:00|56=WILEY|37=123458|17=126|20=0|31=124.00|32=50|55=AAPL|54=1|38=100|39=1|151=50|14=0|6=124.00|60=20230313-13:02:00|10=042|
8=FIX.4.2|9=259|35=8|34=24|49=BANKOFTHENORTH|52=20230313-13:03:00|56=WILEY|37=123458|17=127|20=0|31=124.00|32=25|55=AAPL|54=1|38=100|39=1|151=75|14=0|6=124.00|60=20230313-13:03:00|10=076|
8=FIX.4.2|9=259|35=8|34=25|49=BANKOFTHENORTH|52=20230313-13:04:00|56=WILEY|37=123458|17=128|20=0|31=124.00|32=25|55=AAPL|54=2|38=100|39=2|151=100|14=0|6=124.00|60=20230313-13:04:00|10=095|
8=FIX.4.2|9=209|35=D|34=26|49=WILEY|52=20230313-13:05:00|56=BANKOFTHENORTH|11=12346|21=1|55=AAPL|54=1|38=500|40=2|44=124.50|59=0|10=056|
8=FIX.4.2|9=259|35=8|34=27|49=BANKOFTHENORTH|52=20230313-13:06:00|56=WILEY|37=123458|17=125|20=0|31=124.00|32=50|55=AAPL|54=2|38=100|39=1|151=50|14=0|6=124.00|60=20230313-13:06:00|10=037|
8=FIX.4.2|9=209|35=D|34=28|49=WILEY|52=20230313-13:07:00|56=BANKOFTHENORTH|11=12345|21=1|55=IBM|54=1|38=100|40=2|44=215.50|59=0|10=150|
8=FIX.4.2|9=259|35=8|34=29|49=BANKOFTHENORTH|52=20230313-13:08:00|56=WILEY|37=123458|17=125|20=0|31=215.50|32=100|55=IBM|54=2|38=100|39=1|151=25|14=0|6=124.00|60=20230313-13:08:00|10=037|
8=FIX.4.2|9=209|35=D|34=30|49=WILEY|52=20230313-13:09:00|56=BANKOFTHENORTH|11=12346|21=1|55=AAPL|54=1|38=500|40=2|44=124.50|59=0|10=056|
8=FIX.4.2|9=259|35=8|34=31|49=BANKOFTHENORTH|52=20230313-13:10:00|56=WILEY|37=123457|17=124|20=0|31=124.50|32=500|55=AAPL|54=2|38=500|39=2|151=200|14=0|6=124.50|60=20230313-13:10:00|10=012|
8=FIX.4.2|9=209|35=D|34=32|49=WILEY|52=20230313-13:11:00|56=BANKOFTHENORTH|11=12345|21=1|55=TSLA|54=1|38=100|40=2|44=173.50|59=0|10=150|
8=FIX.4.2|9=259|35=8|34=33|49=BANKOFTHENORTH|52=20230313-13:12:00|56=WILEY|37=123456|17=123|20=0|31=173.50|32=100|55=TSLA|54=2|38=100|39=2|151=100|14=0|6=215.50|60=20230313-13:12:00|10=041|
